:100000000C9434000C943E000C943E000C943E0082
:100010000C943E000C943E000C943E000C943E0068
:100020000C943E000C943E000C943E000C943E0058
:100030000C943E000C943E000C943E000C943E0048
:100040000C943E000C943E000C943E000C943E0038
:100050000C943E000C943E000C943E000C943E0028
:100060000C943E000C943E0011241FBECFEFD8E04C
:10007000DEBFCDBF0E9490000C9496000C9400004F
:1000800082E390E0289AEFE6F7E13197F1F700C0BC
:10009000000025B115B8EFE5FAEE3197F1F700C091
:1000A0000000019779F7089582E390E0299AEFE63E
:1000B000F7E13197F1F700C0000025B115B8EFE581
:1000C000FAEE3197F1F700C00000019779F7089533
:1000D00084E690E02A9AEFE7FEE33197F1F700C05B
:1000E000000025B115B8EFE3FCE93197F1F700C046
:1000F0000000019779F7089584E690E02B9AEFE7E6
:10010000FEE33197F1F700C0000025B115B8EFE329
:10011000FCE93197F1F700C00000019779F70895E5
:100120008FEF84B915B880E090E00895F894FFCF80
:00000001FF
